{
  "contractName": "FileStorage",
  "abi": [
    {
      "anonymous": false,
      "inputs": [
        {
          "indexed": false,
          "internalType": "uint256",
          "name": "fileId",
          "type": "uint256"
        },
        {
          "indexed": false,
          "internalType": "string",
          "name": "fileHash",
          "type": "string"
        },
        {
          "indexed": false,
          "internalType": "uint256",
          "name": "fileSize",
          "type": "uint256"
        },
        {
          "indexed": false,
          "internalType": "string",
          "name": "fileType",
          "type": "string"
        },
        {
          "indexed": false,
          "internalType": "string",
          "name": "fileName",
          "type": "string"
        },
        {
          "indexed": false,
          "internalType": "string",
          "name": "fileDescription",
          "type": "string"
        },
        {
          "indexed": false,
          "internalType": "uint256",
          "name": "uploadTime",
          "type": "uint256"
        }
      ],
      "name": "FileUploaded",
      "type": "event"
    },
    {
      "anonymous": false,
      "inputs": [
        {
          "indexed": true,
          "internalType": "address",
          "name": "previousOwner",
          "type": "address"
        },
        {
          "indexed": true,
          "internalType": "address",
          "name": "newOwner",
          "type": "address"
        }
      ],
      "name": "OwnershipTransferred",
      "type": "event"
    },
    {
      "inputs": [],
      "name": "fileCount",
      "outputs": [
        {
          "internalType": "uint256",
          "name": "",
          "type": "uint256"
        }
      ],
      "stateMutability": "view",
      "type": "function",
      "constant": true
    },
    {
      "inputs": [
        {
          "internalType": "uint256",
          "name": "",
          "type": "uint256"
        }
      ],
      "name": "files",
      "outputs": [
        {
          "internalType": "uint256",
          "name": "fileId",
          "type": "uint256"
        },
        {
          "internalType": "string",
          "name": "fileHash",
          "type": "string"
        },
        {
          "internalType": "uint256",
          "name": "fileSize",
          "type": "uint256"
        },
        {
          "internalType": "string",
          "name": "fileType",
          "type": "string"
        },
        {
          "internalType": "string",
          "name": "fileName",
          "type": "string"
        },
        {
          "internalType": "string",
          "name": "fileDescription",
          "type": "string"
        },
        {
          "internalType": "uint256",
          "name": "uploadTime",
          "type": "uint256"
        }
      ],
      "stateMutability": "view",
      "type": "function",
      "constant": true
    },
    {
      "inputs": [],
      "name": "name",
      "outputs": [
        {
          "internalType": "string",
          "name": "",
          "type": "string"
        }
      ],
      "stateMutability": "view",
      "type": "function",
      "constant": true
    },
    {
      "inputs": [],
      "name": "owner",
      "outputs": [
        {
          "internalType": "address",
          "name": "",
          "type": "address"
        }
      ],
      "stateMutability": "view",
      "type": "function",
      "constant": true
    },
    {
      "inputs": [],
      "name": "renounceOwnership",
      "outputs": [],
      "stateMutability": "nonpayable",
      "type": "function"
    },
    {
      "inputs": [
        {
          "internalType": "address",
          "name": "newOwner",
          "type": "address"
        }
      ],
      "name": "transferOwnership",
      "outputs": [],
      "stateMutability": "nonpayable",
      "type": "function"
    },
    {
      "inputs": [
        {
          "internalType": "string",
          "name": "_fileHash",
          "type": "string"
        },
        {
          "internalType": "uint256",
          "name": "_fileSize",
          "type": "uint256"
        },
        {
          "internalType": "string",
          "name": "_fileType",
          "type": "string"
        },
        {
          "internalType": "string",
          "name": "_fileName",
          "type": "string"
        },
        {
          "internalType": "string",
          "name": "_fileDescription",
          "type": "string"
        }
      ],
      "name": "uploadFile",
      "outputs": [],
      "stateMutability": "payable",
      "type": "function",
      "payable": true
    },
    {
      "inputs": [],
      "name": "connectFil",
      "outputs": [],
      "stateMutability": "nonpayable",
      "type": "function"
    }
  ],
  "bytecode": "0x60806040526040518060400160405280600b81526020017f46696c6553746f72616765000000000000000000000000000000000000000000815250600190805190602001906200005192919062000157565b5060006002553480156200006457600080fd5b5062000085620000796200008b60201b60201c565b6200009360201b60201c565b6200026c565b600033905090565b60008060009054906101000a900473ffffffffffffffffffffffffffffffffffffffff169050816000806101000a81548173ffffffffffffffffffffffffffffffffffffffff021916908373ffffffffffffffffffffffffffffffffffffffff1602179055508173ffffffffffffffffffffffffffffffffffffffff168173ffffffffffffffffffffffffffffffffffffffff167f8be0079c531659141344cd1fd0a4f28419497f9722a3daafe3b4186f6b6457e060405160405180910390a35050565b828054620001659062000207565b90600052602060002090601f016020900481019282620001895760008555620001d5565b82601f10620001a457805160ff1916838001178555620001d5565b82800160010185558215620001d5579182015b82811115620001d4578251825591602001919060010190620001b7565b5b509050620001e49190620001e8565b5090565b5b8082111562000203576000816000905550600101620001e9565b5090565b600060028204905060018216806200022057607f821691505b602082108114156200023757620002366200023d565b5b50919050565b7f4e487b7100000000000000000000000000000000000000000000000000000000600052602260045260246000fd5b61101e806200027c6000396000f3fe60806040526004361061007b5760003560e01c80638da5cb5b1161004e5780638da5cb5b14610104578063e82d9d331461012f578063f2fde38b1461014b578063f4c714b4146101745761007b565b806306fdde031461008057806343953519146100ab57806349b7fda1146100d6578063715018a6146100ed575b600080fd5b34801561008c57600080fd5b506100956101b7565b6040516100a29190610c9e565b60405180910390f35b3480156100b757600080fd5b506100c0610245565b6040516100cd9190610d00565b60405180910390f35b3480156100e257600080fd5b506100eb61024b565b005b3480156100f957600080fd5b506101026102c9565b005b34801561011057600080fd5b50610119610351565b6040516101269190610c83565b60405180910390f35b61014960048036038101906101449190610a86565b61037a565b005b34801561015757600080fd5b50610172600480360381019061016d9190610a5d565b610502565b005b34801561018057600080fd5b5061019b60048036038101906101969190610b5d565b6105fa565b6040516101ae9796959493929190610d1b565b60405180910390f35b600180546101c490610ea1565b80601f01602080910402602001604051908101604052809291908181526020018280546101f090610ea1565b801561023d5780601f106102125761010080835404028352916020019161023d565b820191906000526020600020905b81548152906001019060200180831161022057829003601f168201915b505050505081565b60025481565b61025361085c565b73ffffffffffffffffffffffffffffffffffffffff16610271610351565b73ffffffffffffffffffffffffffffffffffffffff16146102c7576040517f08c379a00000000000000000000000000000000000000000000000000000000081526004016102be90610ce0565b60405180910390fd5b565b6102d161085c565b73ffffffffffffffffffffffffffffffffffffffff166102ef610351565b73ffffffffffffffffffffffffffffffffffffffff1614610345576040517f08c379a000000000000000000000000000000000000000000000000000000000815260040161033c90610ce0565b60405180910390fd5b61034f6000610864565b565b60008060009054906101000a900473ffffffffffffffffffffffffffffffffffffffff16905090565b600085511161038857600080fd5b600083511161039657600080fd5b60008151116103a457600080fd5b60008251116103b257600080fd5b600084116103bf57600080fd5b600260008154809291906103d290610ed3565b91905055506040518060e00160405280600254815260200186815260200185815260200184815260200183815260200182815260200142815250600360006002548152602001908152602001600020600082015181600001556020820151816001019080519060200190610447929190610928565b5060408201518160020155606082015181600301908051906020019061046e929190610928565b50608082015181600401908051906020019061048b929190610928565b5060a08201518160050190805190602001906104a8929190610928565b5060c082015181600601559050507fa8f365f4705f4d569baa2a523698278dddf1d69011b4cb1cf07b239a59f7d0a86002548686868686426040516104f39796959493929190610d1b565b60405180910390a15050505050565b61050a61085c565b73ffffffffffffffffffffffffffffffffffffffff16610528610351565b73ffffffffffffffffffffffffffffffffffffffff161461057e576040517f08c379a000000000000000000000000000000000000000000000000000000000815260040161057590610ce0565b60405180910390fd5b600073ffffffffffffffffffffffffffffffffffffffff168173ffffffffffffffffffffffffffffffffffffffff1614156105ee576040517f08c379a00000000000000000000000000000000000000000000000000000000081526004016105e590610cc0565b60405180910390fd5b6105f781610864565b50565b600360205280600052604060002060009150905080600001549080600101805461062390610ea1565b80601f016020809104026020016040519081016040528092919081815260200182805461064f90610ea1565b801561069c5780601f106106715761010080835404028352916020019161069c565b820191906000526020600020905b81548152906001019060200180831161067f57829003601f168201915b5050505050908060020154908060030180546106b790610ea1565b80601f01602080910402602001604051908101604052809291908181526020018280546106e390610ea1565b80156107305780601f1061070557610100808354040283529160200191610730565b820191906000526020600020905b81548152906001019060200180831161071357829003601f168201915b50505050509080600401805461074590610ea1565b80601f016020809104026020016040519081016040528092919081815260200182805461077190610ea1565b80156107be5780601f10610793576101008083540402835291602001916107be565b820191906000526020600020905b8154815290600101906020018083116107a157829003601f168201915b5050505050908060050180546107d390610ea1565b80601f01602080910402602001604051908101604052809291908181526020018280546107ff90610ea1565b801561084c5780601f106108215761010080835404028352916020019161084c565b820191906000526020600020905b81548152906001019060200180831161082f57829003601f168201915b5050505050908060060154905087565b600033905090565b60008060009054906101000a900473ffffffffffffffffffffffffffffffffffffffff169050816000806101000a81548173ffffffffffffffffffffffffffffffffffffffff021916908373ffffffffffffffffffffffffffffffffffffffff1602179055508173ffffffffffffffffffffffffffffffffffffffff168173ffffffffffffffffffffffffffffffffffffffff167f8be0079c531659141344cd1fd0a4f28419497f9722a3daafe3b4186f6b6457e060405160405180910390a35050565b82805461093490610ea1565b90600052602060002090601f016020900481019282610956576000855561099d565b82601f1061096f57805160ff191683800117855561099d565b8280016001018555821561099d579182015b8281111561099c578251825591602001919060010190610981565b5b5090506109aa91906109ae565b5090565b5b808211156109c75760008160009055506001016109af565b5090565b60006109de6109d984610dd7565b610da6565b9050828152602081018484840111156109f657600080fd5b610a01848285610e5f565b509392505050565b600081359050610a1881610fba565b92915050565b600082601f830112610a2f57600080fd5b8135610a3f8482602086016109cb565b91505092915050565b600081359050610a5781610fd1565b92915050565b600060208284031215610a6f57600080fd5b6000610a7d84828501610a09565b91505092915050565b600080600080600060a08688031215610a9e57600080fd5b600086013567ffffffffffffffff811115610ab857600080fd5b610ac488828901610a1e565b9550506020610ad588828901610a48565b945050604086013567ffffffffffffffff811115610af257600080fd5b610afe88828901610a1e565b935050606086013567ffffffffffffffff811115610b1b57600080fd5b610b2788828901610a1e565b925050608086013567ffffffffffffffff811115610b4457600080fd5b610b5088828901610a1e565b9150509295509295909350565b600060208284031215610b6f57600080fd5b6000610b7d84828501610a48565b91505092915050565b610b8f81610e23565b82525050565b6000610ba082610e07565b610baa8185610e12565b9350610bba818560208601610e6e565b610bc381610fa9565b840191505092915050565b6000610bdb602683610e12565b91507f4f776e61626c653a206e6577206f776e657220697320746865207a65726f206160008301527f64647265737300000000000000000000000000000000000000000000000000006020830152604082019050919050565b6000610c41602083610e12565b91507f4f776e61626c653a2063616c6c6572206973206e6f7420746865206f776e65726000830152602082019050919050565b610c7d81610e55565b82525050565b6000602082019050610c986000830184610b86565b92915050565b60006020820190508181036000830152610cb88184610b95565b905092915050565b60006020820190508181036000830152610cd981610bce565b9050919050565b60006020820190508181036000830152610cf981610c34565b9050919050565b6000602082019050610d156000830184610c74565b92915050565b600060e082019050610d30600083018a610c74565b8181036020830152610d428189610b95565b9050610d516040830188610c74565b8181036060830152610d638187610b95565b90508181036080830152610d778186610b95565b905081810360a0830152610d8b8185610b95565b9050610d9a60c0830184610c74565b98975050505050505050565b6000604051905081810181811067ffffffffffffffff82111715610dcd57610dcc610f7a565b5b8060405250919050565b600067ffffffffffffffff821115610df257610df1610f7a565b5b601f19601f8301169050602081019050919050565b600081519050919050565b600082825260208201905092915050565b6000610e2e82610e35565b9050919050565b600073ffffffffffffffffffffffffffffffffffffffff82169050919050565b6000819050919050565b82818337600083830152505050565b60005b83811015610e8c578082015181840152602081019050610e71565b83811115610e9b576000848401525b50505050565b60006002820490506001821680610eb957607f821691505b60208210811415610ecd57610ecc610f4b565b5b50919050565b6000610ede82610e55565b91507fffffffffffffffffffffffffffffffffffffffffffffffffffffffffffffffff821415610f1157610f10610f1c565b5b600182019050919050565b7f4e487b7100000000000000000000000000000000000000000000000000000000600052601160045260246000fd5b7f4e487b7100000000000000000000000000000000000000000000000000000000600052602260045260246000fd5b7f4e487b7100000000000000000000000000000000000000000000000000000000600052604160045260246000fd5b6000601f19601f8301169050919050565b610fc381610e23565b8114610fce57600080fd5b50565b610fda81610e55565b8114610fe557600080fd5b5056fea26469706673582212203164440d53cd01af1b76914dafd4c43e3250b0e5f1426fd9d2d6059a9639ce8b64736f6c63430008000033",
  "immutableReferences": {},
  "source": "// SPDX-License-Identifier: MIT\npragma solidity 0.8.0;\n\nimport \"@openzeppelin/contracts/access/Ownable.sol\";\n\n// @title A contract for uploading files \n// @notice You can use this contract for to upload files to IPFS from a local device\ncontract FileStorage is Ownable {\n  string public name = 'FileStorage';\n  uint public fileCount = 0;\n  mapping(uint => File) public files;\n\n  struct File {\n    uint fileId;\n    string fileHash;\n    uint fileSize;\n    string fileType;\n    string fileName;\n    string fileDescription;\n    uint uploadTime;\n  }\n\n  event FileUploaded(\n    uint fileId,\n    string fileHash,\n    uint fileSize,\n    string fileType,\n    string fileName, \n    string fileDescription,\n    uint uploadTime\n  );\n\n  // @notice Access Control \n  // @dev require a check of the identity of the transaction sender to see if it matches the declared owner\n  \n  // @notice Upload file once metamask is connected \n  // @dev check for exact file type requirements \n  function uploadFile(string memory _fileHash, uint _fileSize, string memory _fileType, string memory _fileName, string memory _fileDescription ) public payable {\n    // Make sure the file hash exists\n    require(bytes(_fileHash).length > 0);\n    // Make sure file type exists\n    require(bytes(_fileType).length > 0);\n    // Make sure file description exists\n    require(bytes(_fileDescription).length > 0);\n    // Make sure file fileName exists\n    require(bytes(_fileName).length > 0);\n    // Make sure uploader address exists\n    // Make sure file size is more than 0\n    require(_fileSize>0);\n\n    // Increment file id\n    fileCount ++;\n\n    // Add File to the contract\n    files[fileCount] = File(fileCount, _fileHash, _fileSize, _fileType, _fileName, _fileDescription, block.timestamp);\n    // Trigger an event\n    emit FileUploaded(fileCount, _fileHash, _fileSize, _fileType, _fileName, _fileDescription, block.timestamp);\n  }\n\n// @notice Upload file to filecoin network  \nfunction connectFil () public onlyOwner  {\n  // To Do: connect to filecoin and inherit from FileCoinStorage.sol\n}\n\n\n}",
  "sourcePath": "/Users/shaun/Desktop/Blockchain/fp-ropsten-test/src/contracts/FileStorage.sol",
  "compiler": {
    "name": "solc",
    "version": "0.8.0+commit.c7dfd78e.Emscripten.clang"
  },
  "schemaVersion": "3.4.3",
  "updatedAt": "2021-11-21T05:10:43.833Z",
  "networkType": "ethereum",
  "devdoc": {
    "kind": "dev",
    "methods": {
      "owner()": {
        "details": "Returns the address of the current owner."
      },
      "renounceOwnership()": {
        "details": "Leaves the contract without owner. It will not be possible to call `onlyOwner` functions anymore. Can only be called by the current owner. NOTE: Renouncing ownership will leave the contract without an owner, thereby removing any functionality that is only available to the owner."
      },
      "transferOwnership(address)": {
        "details": "Transfers ownership of the contract to a new account (`newOwner`). Can only be called by the current owner."
      }
    },
    "version": 1
  },
  "userdoc": {
    "kind": "user",
    "methods": {},
    "version": 1
  }
}